{
  "_format": "hh-sol-artifact-1",
  "contractName": "ERC721Staking",
  "sourceName": "contracts/Stake_contract.sol",
  "abi": [
    {
      "inputs": [
        {
          "internalType": "contract IERC721",
          "name": "_nftCollection",
          "type": "address"
        }
      ],
      "stateMutability": "nonpayable",
      "type": "constructor"
    },
    {
      "inputs": [
        {
          "internalType": "address",
          "name": "_staker",
          "type": "address"
        }
      ],
      "name": "availableRewards",
      "outputs": [
        {
          "internalType": "uint256",
          "name": "",
          "type": "uint256"
        }
      ],
      "stateMutability": "view",
      "type": "function"
    },
    {
      "inputs": [],
      "name": "claimRewards",
      "outputs": [],
      "stateMutability": "nonpayable",
      "type": "function"
    },
    {
      "inputs": [
        {
          "internalType": "address",
          "name": "_user",
          "type": "address"
        }
      ],
      "name": "getStakedTokens",
      "outputs": [
        {
          "components": [
            {
              "internalType": "address",
              "name": "staker",
              "type": "address"
            },
            {
              "internalType": "uint256",
              "name": "tokenId",
              "type": "uint256"
            }
          ],
          "internalType": "struct ERC721Staking.StakedToken[]",
          "name": "",
          "type": "tuple[]"
        }
      ],
      "stateMutability": "view",
      "type": "function"
    },
    {
      "inputs": [],
      "name": "nftCollection",
      "outputs": [
        {
          "internalType": "contract IERC721",
          "name": "",
          "type": "address"
        }
      ],
      "stateMutability": "view",
      "type": "function"
    },
    {
      "inputs": [
        {
          "internalType": "uint256",
          "name": "_tokenId",
          "type": "uint256"
        }
      ],
      "name": "stake",
      "outputs": [],
      "stateMutability": "nonpayable",
      "type": "function"
    },
    {
      "inputs": [
        {
          "internalType": "uint256",
          "name": "",
          "type": "uint256"
        }
      ],
      "name": "stakerAddress",
      "outputs": [
        {
          "internalType": "address",
          "name": "",
          "type": "address"
        }
      ],
      "stateMutability": "view",
      "type": "function"
    },
    {
      "inputs": [
        {
          "internalType": "address",
          "name": "",
          "type": "address"
        }
      ],
      "name": "stakers",
      "outputs": [
        {
          "internalType": "uint256",
          "name": "amountStaked",
          "type": "uint256"
        },
        {
          "internalType": "uint256",
          "name": "timeOfLastUpdate",
          "type": "uint256"
        },
        {
          "internalType": "uint256",
          "name": "unclaimedRewards",
          "type": "uint256"
        }
      ],
      "stateMutability": "view",
      "type": "function"
    },
    {
      "inputs": [
        {
          "internalType": "uint256",
          "name": "_tokenId",
          "type": "uint256"
        }
      ],
      "name": "withdraw",
      "outputs": [],
      "stateMutability": "nonpayable",
      "type": "function"
    }
  ],
  "bytecode": "0x60a06040526127106001553480156200001757600080fd5b5060405162001b7238038062001b7283398181016040528101906200003d9190620000fe565b60016000819055508073ffffffffffffffffffffffffffffffffffffffff1660808173ffffffffffffffffffffffffffffffffffffffff16815250505062000130565b600080fd5b600073ffffffffffffffffffffffffffffffffffffffff82169050919050565b6000620000b28262000085565b9050919050565b6000620000c682620000a5565b9050919050565b620000d881620000b9565b8114620000e457600080fd5b50565b600081519050620000f881620000cd565b92915050565b60006020828403121562000117576200011662000080565b5b60006200012784828501620000e7565b91505092915050565b608051611a11620001616000396000818161067201528181610c3101528181610dc90152610eb90152611a116000f3fe608060405234801561001057600080fd5b50600436106100885760003560e01c80639168ae721161005b5780639168ae72146101015780639406704514610133578063a694fc3a14610163578063f854a27f1461017f57610088565b80632e1a7d4d1461008d578063372500ab146100a957806363c28db1146100b35780636588103b146100e3575b600080fd5b6100a760048036038101906100a291906112be565b6101af565b005b6100b1610753565b005b6100cd60048036038101906100c89190611349565b6108c9565b6040516100da9190611472565b60405180910390f35b6100eb610c2f565b6040516100f891906114f3565b60405180910390f35b61011b60048036038101906101169190611349565b610c53565b60405161012a9392919061151d565b60405180910390f35b61014d600480360381019061014891906112be565b610c7d565b60405161015a9190611563565b60405180910390f35b61017d600480360381019061017891906112be565b610cb0565b005b61019960048036038101906101949190611349565b611131565b6040516101a6919061157e565b60405180910390f35b6002600054036101f4576040517f08c379a00000000000000000000000000000000000000000000000000000000081526004016101eb906115f6565b60405180910390fd5b60026000819055506000600260003373ffffffffffffffffffffffffffffffffffffffff1673ffffffffffffffffffffffffffffffffffffffff1681526020019081526020016000206000015411610281576040517f08c379a000000000000000000000000000000000000000000000000000000000815260040161027890611662565b60405180910390fd5b3373ffffffffffffffffffffffffffffffffffffffff166003600083815260200190815260200160002060009054906101000a900473ffffffffffffffffffffffffffffffffffffffff1673ffffffffffffffffffffffffffffffffffffffff1614610322576040517f08c379a0000000000000000000000000000000000000000000000000000000008152600401610319906116ce565b60405180910390fd5b600061032d33611195565b905080600260003373ffffffffffffffffffffffffffffffffffffffff1673ffffffffffffffffffffffffffffffffffffffff1681526020019081526020016000206003016000828254610381919061171d565b925050819055506000805b600260003373ffffffffffffffffffffffffffffffffffffffff1673ffffffffffffffffffffffffffffffffffffffff1681526020019081526020016000206001018054905081101561051f5783600260003373ffffffffffffffffffffffffffffffffffffffff1673ffffffffffffffffffffffffffffffffffffffff168152602001908152602001600020600101828154811061042e5761042d611751565b5b9060005260206000209060020201600101541480156104ff5750600073ffffffffffffffffffffffffffffffffffffffff16600260003373ffffffffffffffffffffffffffffffffffffffff1673ffffffffffffffffffffffffffffffffffffffff16815260200190815260200160002060010182815481106104b4576104b3611751565b5b906000526020600020906002020160000160009054906101000a900473ffffffffffffffffffffffffffffffffffffffff1673ffffffffffffffffffffffffffffffffffffffff1614155b1561050c5780915061051f565b808061051790611780565b91505061038c565b506000600260003373ffffffffffffffffffffffffffffffffffffffff1673ffffffffffffffffffffffffffffffffffffffff168152602001908152602001600020600101828154811061057657610575611751565b5b906000526020600020906002020160000160006101000a81548173ffffffffffffffffffffffffffffffffffffffff021916908373ffffffffffffffffffffffffffffffffffffffff160217905550600260003373ffffffffffffffffffffffffffffffffffffffff1673ffffffffffffffffffffffffffffffffffffffff1681526020019081526020016000206000016000815480929190610618906117c8565b919050555060006003600085815260200190815260200160002060006101000a81548173ffffffffffffffffffffffffffffffffffffffff021916908373ffffffffffffffffffffffffffffffffffffffff1602179055507f000000000000000000000000000000000000000000000000000000000000000073ffffffffffffffffffffffffffffffffffffffff166323b872dd3033866040518463ffffffff1660e01b81526004016106cd939291906117f1565b600060405180830381600087803b1580156106e757600080fd5b505af11580156106fb573d6000803e3d6000fd5b5050505042600260003373ffffffffffffffffffffffffffffffffffffffff1673ffffffffffffffffffffffffffffffffffffffff168152602001908152602001600020600201819055505050600160008190555050565b6000600260003373ffffffffffffffffffffffffffffffffffffffff1673ffffffffffffffffffffffffffffffffffffffff168152602001908152602001600020600301546107a133611195565b6107ab919061171d565b9050600081116107f0576040517f08c379a00000000000000000000000000000000000000000000000000000000081526004016107e790611874565b60405180910390fd5b42600260003373ffffffffffffffffffffffffffffffffffffffff1673ffffffffffffffffffffffffffffffffffffffff168152602001908152602001600020600201819055506000600260003373ffffffffffffffffffffffffffffffffffffffff1673ffffffffffffffffffffffffffffffffffffffff168152602001908152602001600020600301819055503373ffffffffffffffffffffffffffffffffffffffff166108fc829081150290604051600060405180830381858888f193505050501580156108c5573d6000803e3d6000fd5b5050565b60606000600260008473ffffffffffffffffffffffffffffffffffffffff1673ffffffffffffffffffffffffffffffffffffffff168152602001908152602001600020600001541115610bd2576000600260008473ffffffffffffffffffffffffffffffffffffffff1673ffffffffffffffffffffffffffffffffffffffff1681526020019081526020016000206000015467ffffffffffffffff81111561097457610973611894565b5b6040519080825280602002602001820160405280156109ad57816020015b61099a611253565b8152602001906001900390816109925790505b5090506000805b600260008673ffffffffffffffffffffffffffffffffffffffff1673ffffffffffffffffffffffffffffffffffffffff16815260200190815260200160002060010180549050811015610bc757600073ffffffffffffffffffffffffffffffffffffffff16600260008773ffffffffffffffffffffffffffffffffffffffff1673ffffffffffffffffffffffffffffffffffffffff1681526020019081526020016000206001018281548110610a6d57610a6c611751565b5b906000526020600020906002020160000160009054906101000a900473ffffffffffffffffffffffffffffffffffffffff1673ffffffffffffffffffffffffffffffffffffffff1614610bb457600260008673ffffffffffffffffffffffffffffffffffffffff1673ffffffffffffffffffffffffffffffffffffffff1681526020019081526020016000206001018181548110610b0e57610b0d611751565b5b90600052602060002090600202016040518060400160405290816000820160009054906101000a900473ffffffffffffffffffffffffffffffffffffffff1673ffffffffffffffffffffffffffffffffffffffff1673ffffffffffffffffffffffffffffffffffffffff168152602001600182015481525050838381518110610b9a57610b99611751565b5b60200260200101819052508180610bb090611780565b9250505b8080610bbf90611780565b9150506109b4565b508192505050610c2a565b600067ffffffffffffffff811115610bed57610bec611894565b5b604051908082528060200260200182016040528015610c2657816020015b610c13611253565b815260200190600190039081610c0b5790505b5090505b919050565b7f000000000000000000000000000000000000000000000000000000000000000081565b60026020528060005260406000206000915090508060000154908060020154908060030154905083565b60036020528060005260406000206000915054906101000a900473ffffffffffffffffffffffffffffffffffffffff1681565b600260005403610cf5576040517f08c379a0000000000000000000000000000000000000000000000000000000008152600401610cec906115f6565b60405180910390fd5b60026000819055506000600260003373ffffffffffffffffffffffffffffffffffffffff1673ffffffffffffffffffffffffffffffffffffffff168152602001908152602001600020600001541115610db0576000610d5333611195565b905080600260003373ffffffffffffffffffffffffffffffffffffffff1673ffffffffffffffffffffffffffffffffffffffff1681526020019081526020016000206003016000828254610da7919061171d565b92505081905550505b3373ffffffffffffffffffffffffffffffffffffffff167f000000000000000000000000000000000000000000000000000000000000000073ffffffffffffffffffffffffffffffffffffffff16636352211e836040518263ffffffff1660e01b8152600401610e20919061157e565b602060405180830381865afa158015610e3d573d6000803e3d6000fd5b505050506040513d601f19601f82011682018060405250810190610e6191906118d8565b73ffffffffffffffffffffffffffffffffffffffff1614610eb7576040517f08c379a0000000000000000000000000000000000000000000000000000000008152600401610eae906116ce565b60405180910390fd5b7f000000000000000000000000000000000000000000000000000000000000000073ffffffffffffffffffffffffffffffffffffffff166323b872dd3330846040518463ffffffff1660e01b8152600401610f14939291906117f1565b600060405180830381600087803b158015610f2e57600080fd5b505af1158015610f42573d6000803e3d6000fd5b50505050600060405180604001604052803373ffffffffffffffffffffffffffffffffffffffff168152602001838152509050600260003373ffffffffffffffffffffffffffffffffffffffff1673ffffffffffffffffffffffffffffffffffffffff16815260200190815260200160002060010181908060018154018082558091505060019003906000526020600020906002020160009091909190915060008201518160000160006101000a81548173ffffffffffffffffffffffffffffffffffffffff021916908373ffffffffffffffffffffffffffffffffffffffff160217905550602082015181600101555050600260003373ffffffffffffffffffffffffffffffffffffffff1673ffffffffffffffffffffffffffffffffffffffff168152602001908152602001600020600001600081548092919061108790611780565b9190505550336003600084815260200190815260200160002060006101000a81548173ffffffffffffffffffffffffffffffffffffffff021916908373ffffffffffffffffffffffffffffffffffffffff16021790555042600260003373ffffffffffffffffffffffffffffffffffffffff1673ffffffffffffffffffffffffffffffffffffffff1681526020019081526020016000206002018190555050600160008190555050565b600080600260008473ffffffffffffffffffffffffffffffffffffffff1673ffffffffffffffffffffffffffffffffffffffff1681526020019081526020016000206003015461118084611195565b61118a919061171d565b905080915050919050565b6000610e10600154600260008573ffffffffffffffffffffffffffffffffffffffff1673ffffffffffffffffffffffffffffffffffffffff16815260200190815260200160002060000154600260008673ffffffffffffffffffffffffffffffffffffffff1673ffffffffffffffffffffffffffffffffffffffff168152602001908152602001600020600201544261122e9190611905565b6112389190611939565b6112429190611939565b61124c91906119aa565b9050919050565b6040518060400160405280600073ffffffffffffffffffffffffffffffffffffffff168152602001600081525090565b600080fd5b6000819050919050565b61129b81611288565b81146112a657600080fd5b50565b6000813590506112b881611292565b92915050565b6000602082840312156112d4576112d3611283565b5b60006112e2848285016112a9565b91505092915050565b600073ffffffffffffffffffffffffffffffffffffffff82169050919050565b6000611316826112eb565b9050919050565b6113268161130b565b811461133157600080fd5b50565b6000813590506113438161131d565b92915050565b60006020828403121561135f5761135e611283565b5b600061136d84828501611334565b91505092915050565b600081519050919050565b600082825260208201905092915050565b6000819050602082019050919050565b6113ab8161130b565b82525050565b6113ba81611288565b82525050565b6040820160008201516113d660008501826113a2565b5060208201516113e960208501826113b1565b50505050565b60006113fb83836113c0565b60408301905092915050565b6000602082019050919050565b600061141f82611376565b6114298185611381565b935061143483611392565b8060005b8381101561146557815161144c88826113ef565b975061145783611407565b925050600181019050611438565b5085935050505092915050565b6000602082019050818103600083015261148c8184611414565b905092915050565b6000819050919050565b60006114b96114b46114af846112eb565b611494565b6112eb565b9050919050565b60006114cb8261149e565b9050919050565b60006114dd826114c0565b9050919050565b6114ed816114d2565b82525050565b600060208201905061150860008301846114e4565b92915050565b61151781611288565b82525050565b6000606082019050611532600083018661150e565b61153f602083018561150e565b61154c604083018461150e565b949350505050565b61155d8161130b565b82525050565b60006020820190506115786000830184611554565b92915050565b6000602082019050611593600083018461150e565b92915050565b600082825260208201905092915050565b7f5265656e7472616e637947756172643a207265656e7472616e742063616c6c00600082015250565b60006115e0601f83611599565b91506115eb826115aa565b602082019050919050565b6000602082019050818103600083015261160f816115d3565b9050919050565b7f596f752068617665206e6f20746f6b656e73207374616b656400000000000000600082015250565b600061164c601983611599565b915061165782611616565b602082019050919050565b6000602082019050818103600083015261167b8161163f565b9050919050565b7f596f7520646f6e2774206f776e207468697320746f6b656e2100000000000000600082015250565b60006116b8601983611599565b91506116c382611682565b602082019050919050565b600060208201905081810360008301526116e7816116ab565b9050919050565b7f4e487b7100000000000000000000000000000000000000000000000000000000600052601160045260246000fd5b600061172882611288565b915061173383611288565b925082820190508082111561174b5761174a6116ee565b5b92915050565b7f4e487b7100000000000000000000000000000000000000000000000000000000600052603260045260246000fd5b600061178b82611288565b91507fffffffffffffffffffffffffffffffffffffffffffffffffffffffffffffffff82036117bd576117bc6116ee565b5b600182019050919050565b60006117d382611288565b9150600082036117e6576117e56116ee565b5b600182039050919050565b60006060820190506118066000830186611554565b6118136020830185611554565b611820604083018461150e565b949350505050565b7f596f752068617665206e6f207265776172647320746f20636c61696d00000000600082015250565b600061185e601c83611599565b915061186982611828565b602082019050919050565b6000602082019050818103600083015261188d81611851565b9050919050565b7f4e487b7100000000000000000000000000000000000000000000000000000000600052604160045260246000fd5b6000815190506118d28161131d565b92915050565b6000602082840312156118ee576118ed611283565b5b60006118fc848285016118c3565b91505092915050565b600061191082611288565b915061191b83611288565b9250828203905081811115611933576119326116ee565b5b92915050565b600061194482611288565b915061194f83611288565b925082820261195d81611288565b91508282048414831517611974576119736116ee565b5b5092915050565b7f4e487b7100000000000000000000000000000000000000000000000000000000600052601260045260246000fd5b60006119b582611288565b91506119c083611288565b9250826119d0576119cf61197b565b5b82820490509291505056fea2646970667358221220dae0055a2bf0709051d1c030c735abf0650f2d73de486c57e2c332712f5f1cb964736f6c63430008110033",
  "linkReferences": {},
  "deployedLinkReferences": {}
}